:020000040800F2
:10000000002800208D170008D1110008D911000820
:10001000E1110008E9110008F111000800000000DA
:10002000000000000000000000000000F9110008BE
:100030000512000800000000111200081D1200083F
:10004000D5170008D5170008D5170008D5170008E0
:10005000D5170008D5170008D5170008D5170008D0
:10006000D5170008D5170008D5170008D5170008C0
:10007000D5170008D5170008D5170008D5170008B0
:10008000D5170008D5170008D5170008D5170008A0
:10009000D5170008D5170008D5170008D517000890
:1000A000D5170008D5170008D5170008D517000880
:1000B00029120008D517000800000000D517000815
:1000C000D51700080000000000000000D517000848
:1000D00000000000D5170008D51700080000000038
:1000E000D5170008D5170008D51700080000000034
:1000F0000000000000000000000000000000000000
:0C01000000000000000000005FF808F1A3
:10010C0010B5054C237833B9044B13B10448AFF345
:10011C0000800123237010BD64000020000000004B
:10012C000C2E000808B5034B1BB103490348AFF371
:10013C00008008BD00000000680000200C2E0008A4
:10014C0080B483B000AF78607B68032B11D07B68E0
:10015C00032B12DC7B68012B03D07B68022B04D0B1
:10016C000BE0084B01221A6007E0074B01221A60D2
:10017C0003E0064B01221A6000BF00BF0C37BD46DE
:10018C0080BC704780000020840000208800002084
:10019C0080B400AF064B1B68012B04D1044B00222A
:1001AC001A60012300E000231846BD4680BC70474E
:1001BC008000002080B400AF064B1B68012B04D1DB
:1001CC00044B00221A60012300E000231846BD46B0
:1001DC0080BC70478400002080B400AF064B1B68C5
:1001EC00012B04D1044B00221A60012300E00023F0
:1001FC001846BD4680BC70478800002080B500AF13
:10020C00234B1B68234A1360234B1B68204A136043
:10021C004FF40061214801F0C5FD03461A461E4B00
:10022C001A601C4B1A681A4B1B689A422DD1184B3A
:10023C001A68194B1B689A4227D1194B1A68164B2E
:10024C001B689A420ED0144B1B68154A1360124B54
:10025C001B68002B19D10120FFF772FF114BC8222C
:10026C001A6012E00F4B1B68013B0E4A13600D4BDA
:10027C001B68002B09D1084B1B68002B02D10120F5
:10028C00FFF75EFF074BC8221A6000BF80BD00BF9E
:10029C00040000200000002008000020000801409D
:1002AC000C0000201000002080B500AF234B1B6811
:1002BC00234A1360234B1B68204A13604FF4805170
:1002CC00214801F06FFD03461A461E4B1A601C4B69
:1002DC001A681A4B1B689A422DD1184B1A68194B85
:1002EC001B689A4227D1194B1A68164B1B689A4205
:1002FC000ED0144B1B68154A1360124B1B68002B55
:10030C0019D10220FFF71CFF114BC8221A6012E012
:10031C000F4B1B68013B0E4A13600D4B1B68002BE7
:10032C0009D1084B1B68002B02D10220FFF708FFF4
:10033C00074BC8221A6000BF80BD00BF1800002008
:10034C00140000201C0000200008014020000020A8
:10035C002400002080B500AF234B1B68234A136098
:10036C00234B1B68204A13604FF40051214801F0C5
:10037C0019FD03461A461E4B1A601C4B1A681A4B81
:10038C001B689A422DD1184B1A68194B1B689A425C
:10039C0027D1194B1A68164B1B689A420ED0144B76
:1003AC001B68154A1360124B1B68002B19D10320D4
:1003BC00FFF7C6FE114BC8221A6012E00F4B1B68E8
:1003CC00013B0E4A13600D4B1B68002B09D1084BE7
:1003DC001B68002B02D10320FFF7B2FE074BC8228B
:1003EC001A6000BF80BD00BF2C0000202800002038
:1003FC0030000020000801403400002038000020AC
:10040C0080B500AFFFF7FAFEFFF74EFFFFF7A2FF34
:10041C0000BF80BD80B500AF8B4B1B68013B042B2C
:10042C0000F27D8101A252F823F000BF4D040008B8
:10043C007F04000839050008CB0500088D0600086C
:10044C00824B1B684FF47A7202FB03F3184600F0E0
:10045C0089FD4FF47A7000F0A1FD7B4B02221A60EB
:10046C007A4B1B687A4A13607A4B1B687A4A136082
:10047C0055E100224FF4CC71784801F0AAFC01221E
:10048C006021764801F0A5FC714B1B68724A12681A
:10049C001146184601F07EF8714B1B68012B15D1E3
:1004AC004FF47A7000F07AFD694B1B686A4A126847
:1004BC001146184601F06EF8654B1B68013B644A07
:1004CC001360654B1B68013B634A136001F042F9F2
:1004DC00644B1B68012B0FD1634B1B684FF47A7272
:1004EC0002FB03F3184600F03DFD574B03221A6044
:1004FC005D4B1B685D4A1360FFF74AFE0346012BF8
:10050C0040F00681504B0C221A60524B1B68584A23
:10051C00136042F2107000F025FDFA2000F076FD19
:10052C00012248214D4801F054FCF1E000224FF427
:10053C00D4714A4801F04DFC01225021474801F08A
:10054C0048FC4A4B1B68444A12681146184601F095
:10055C0021F8434B1B68012B15D14FF47A7000F036
:10056C001DFD424B1B683C4A12681146184601F0AF
:10057C0011F83E4B1B68013B3C4A1360364B1B6821
:10058C00013B354A136001F0E5F8364B1B68012B33
:10059C0040F0C0802D4B1B684FF47A7202FB03F3C2
:1005AC00184600F0DFFC294B1B68324A1360294BBC
:1005BC001B68314A1360244B04221A60AAE0012202
:1005CC004FF48471254801F004FC0022F0212348EB
:1005DC0001F0FFFB284B1B68264A1268114618468F
:1005EC0000F0D8FF1E4B1B68012B15D14FF47A700D
:1005FC0000F0D4FC204B1B681E4A126811461846AA
:10060C0000F0C8FF1B4B1B68013B1A4A13601A4BC6
:10061C001B68013B184A136001F09CF8114B1B68D6
:10062C00012B79D1104B1B684FF47A7202FB03F348
:10063C00184600F097FC0C4B1B68104A1360024BD9
:10064C0005221A6068E000BFB000002044000020C2
:10065C00940000203C000020900000200008014085
:10066C003004002028040020400000209C000020C2
:10067C00A4000020980000208C000020A000002086
:10068C0001228821274801F0A4FB00224FF4B87105
:10069C00244801F09EFB244B1B68244A1268114627
:1006AC00184600F077FF224B1B68012B15D14FF435
:1006BC007A7000F073FC1C4B1B681E4A12681146C2
:1006CC00184600F067FF194B1B68013B174A136073
:1006DC00154B1B68013B144A136001F03BF8164B99
:1006EC001B68012B1AD1154B1B684FF47A7202FB55
:1006FC0003F3184600F036FC104B1B68104A1360CD
:10070C00104B1B68104A1360104B02221A6005E054
:10071C0000BF04E000BF02E000BF00E000BF00BF6C
:10072C0080BD00BF000801408C000020A00000200C
:10073C0030040020980000202804002044000020F1
:10074C00940000203C00002090000020B00000200D
:10075C0080B500AF7F4B1B680E2B00F013810E2B66
:10076C0000F3AE810C2B02D00D2B79D0A8E17A4B83
:10077C001B68012B06D1FA2000F048FC4821774871
:10078C0001F03FFB00224FF4D871744801F021FBBB
:10079C00734B1B680221184600F0FCFE714B1B6862
:1007AC00012B06D16B4B02221A6041F2883000F00B
:1007BC00D9FBFFF7EDFC0346012B12D1654B0D2243
:1007CC001A60694B1B68694A136042F2107000F0A2
:1007DC00C9FBFA2000F01AFC012290215F4801F0BD
:1007EC00F8FAFFF7E7FC0346012B0AD15C4B1B68B8
:1007FC0001335B4A13605A4B1B680221184600F008
:10080C00C9FE00F0A7FFFFF7E7FC0346012B40F001
:10081C005981534B1B68564A1360554B1A68524BFF
:10082C001B68D31A534A13604A4B02221A60514B6D
:10083C001B684FF47A7202FB03F3184600F092FB2C
:10084C004FF47A7000F0AAFB424B02221A60494B1B
:10085C001B68494A1360464B1B68484A136031E1D8
:10086C003D4B1B68012B06D1FA2000F0CFFB9021E9
:10087C003A4801F0C6FA00224FF4B471374801F03F
:10088C00A8FA3A4B1B680321184600F083FE354B3F
:10089C001B68012B06D12F4B02221A6041F28830C3
:1008AC0000F060FBFFF774FC0346012B13D1294BBE
:1008BC000E221A602F4B1B68314A136042F21070E3
:1008CC0000F050FBFA2000F0A1FB01224FF49071D4
:1008DC00224801F07EFAFFF76DFC0346012B0AD18A
:1008EC00224B1B680133214A1360204B1B680321E8
:1008FC00184600F04FFE00F02DFFFFF76DFC03468D
:10090C00012B40F0E180194B1B68174A1360194BFF
:10091C001A68154B1B681344154A13600D4B0222C1
:10092C001A60144B1B684FF47A7202FB03F31846DF
:10093C0000F018FB4FF47A7000F030FB054B0222EC
:10094C001A600C4B1B680C4A1360094B1B680B4A52
:10095C001360B9E0B0000020400400200008014002
:10096C00A40000202804002040000020A800002043
:10097C003C00002044000020940000209000002047
:10098C00AC000020534B1B68012B07D1FA2000F060
:10099C003DFB4FF49071504801F033FA0022D821FE
:1009AC004D4801F016FA4D4B1B680421184600F017
:1009BC00F1FD4B4B1B68012B06D14A4B02221A60EE
:1009CC0041F2883000F0CEFAFFF7E2FB0346012B30
:1009DC0017D1454B1B684FF47A7202FB03F3184690
:1009EC0000F0C0FA4FF47A7000F0D8FA3D4B0222B6
:1009FC001A603D4B1B683D4A13603D4B1B683D4ADA
:100A0C001360FFF7D7FB0346012B0AD1334B1B684E
:100A1C000133324A1360314B1B680421184600F035
:100A2C00B9FD00F097FEFFF7D7FB0346012B4DD124
:100A3C002A4B1B682C4A13602F4B1B682F4A1360E0
:100A4C002F4B1B682A4A13602C4B1A68264B1B68C9
:100A5C001A44274B1B689A4206DA254B1A68274B17
:100A6C001B68D31A204A1360244B1A681E4B1B6850
:100A7C001A441F4B1B689A4206DD1B4B1A681F4B0E
:100A8C001B6813441A4A1360164B02221A60164B49
:100A9C001B684FF47A7202FB03F3184600F062FAFB
:100AAC004FF47A7000F07AFA0E4B02221A600E4B59
:100ABC001B680E4A13600E4B1B680E4A136005E050
:100ACC0000BF04E000BF02E000BF00E000BF00BFB9
:100ADC0080BD00BF4004002000080140AC00002095
:100AEC0028040020B00000204400002094000020C6
:100AFC003C00002090000020A800002040000020B6
:100B0C00A400002080B500AF00F060FE00F02AF8D1
:100B1C0000F0B0F800F062F80D4801F0B9FD00F0FB
:100B2C001DF90A2201210B4800F024F90A220121A7
:100B3C00094800F01FF90A220121084800F01AF9AF
:100B4C000A220121064800F015F900F0C9F9FCE76A
:100B5C00B8000020511000080D0400082104000802
:100B6C005D07000880B590B000AF07F1180328228C
:100B7C000021184602F018F93B1D00221A605A6039
:100B8C009A60DA601A610223BB610123BB621023F5
:100B9C00FB6200237B6307F11803184601F04AF946
:100BAC000346002B01D000F0D3F80F237B60002309
:100BBC00BB600023FB6000233B6100237B613B1D7A
:100BCC000021184601F0B8FB0346002B01D000F0C1
:100BDC00BFF800BF4037BD4680BD000080B586B071
:100BEC0000AF07F1080300221A605A609A60DA60BD
:100BFC003B4600221A605A601D4B4FF080421A602F
:100C0C001B4B41F63F725A60194B00229A60184BED
:100C1C000922DA60164B00221A61154B00229A61E8
:100C2C00134801F0E5FC0346002B01D000F090F8CE
:100C3C004FF48053BB6007F1080319460C4801F0D0
:100C4C0063FE0346002B01D000F082F800233B60CA
:100C5C0000237B603B461946054802F03BF80346EF
:100C6C00002B01D000F074F800BF1837BD4680BDD2
:100C7C00B800002080B586B000AF07F10803002251
:100C8C001A605A609A60DA60294B9B69284A43F0D3
:100C9C0004039361264B9B6903F004037B607B6820
:100CAC00234B9B69224A43F008039361204B9B69B9
:100CBC0003F008033B603B68002244F2F8111D4826
:100CCC0001F087F800224FF27F011B4801F081F8F8
:100CDC0044F2F813BB600123FB6000233B61022349
:100CEC007B6107F108031946124800F0DFFE4FF252
:100CFC007F03BB600123FB6000233B6102237B610C
:100D0C0007F1080319460C4800F0D0FE4FF460536D
:100D1C00BB600023FB6001233B6107F1080319460C
:100D2C00044800F0C3FE00BF1837BD4680BD00BFAD
:100D3C000010024000080140000C014080B582B058
:100D4C0000AF786000F06CF800BF0837BD4680BD7E
:100D5C0080B400AF72B600BF00BFFDE780B400AF37
:100D6C00034B00221A7000BFBD4680BC704700BF09
:100D7C002004002080B485B000AFF860B9607A60C0
:100D8C00254B1B78272B42D8234B1B781946234A1B
:100D9C000B469B000B449B001344FA681A601E4BD5
:100DAC001B7819461D4A0B469B000B449B001344B1
:100DBC000433BA681A60184B1B781946174A0B464D
:100DCC009B000B449B00134408337A681A60124B47
:100DDC001B781946114A0B469B000B449B0013448D
:100DEC000C3300221A700C4B1A780B4B1B781946DB
:100DFC0010460A4A0B469B000B449B0013441033CD
:100E0C001860054B1B780133DAB2034B1A7000BF24
:100E1C001437BD4680BC7047200400200001002020
:100E2C0080B483B000AF00237B6048E02A497A6825
:100E3C0013469B0013449B000B4404331B68002B8C
:100E4C0013D025497A6813469B0013449B000B442E
:100E5C0004331B68591E20487A6813469B001344C0
:100E6C009B0003440433196026E01B497A6813463F
:100E7C009B0013449B000B440833196816487A688E
:100E8C0013469B0013449B0003440433196012491E
:100E9C007A6813469B0013449B000B440C331B785D
:100EAC000133D8B20C497A6813469B0013449B005B
:100EBC000B440C3302461A707B6801337B60074B82
:100ECC001B781A467B689342B0DB00BF00BF0C371F
:100EDC00BD4680BC704700BF0001002020040020EC
:100EEC0080B582B000AF00237B602BE01B497A6891
:100EFC0013469B0013449B000B440C331B78002BB4
:100F0C001DD016497A6813469B0013449B000B4472
:100F1C000C331B78013BD8B210497A6813469B00FE
:100F2C0013449B000B440C3302461A700B497A682D
:100F3C0013469B0013449B000B441B6898477B682B
:100F4C0001337B60064B1B781A467B689342CDDBE2
:100F5C0000BF00BF0837BD4680BD00BF00010020A8
:100F6C002004002080B483B000AF78607B68084A0E
:100F7C0082FB03129210DB17D31A064A1360064B3E
:100F8C0000221A6000BF0C37BD4680BC704700BF02
:100F9C0067666666240400202804002080B483B0B1
:100FAC0000AF78607B68084A82FB03129210DB1753
:100FBC00D31A064A1360064B00221A6000BF0C3786
:100FCC00BD4680BC704700BF676666662C04002077
:100FDC003004002080B483B000AF78607B68084A8E
:100FEC0082FB03129210DB17D31A064A1360064BCE
:100FFC0000221A6000BF0C37BD4680BC704700BF92
:10100C0067666666340400203804002080B483B020
:10101C0000AF78607B68084A82FB03129210DB17E2
:10102C00D31A064A1360064B00221A6000BF0C3715
:10103C00BD4680BC704700BF676666663C040020F6
:10104C004004002080B400AF294B1B68002B0BDD43
:10105C00274B1B68013B264A1360254B1B68002B52
:10106C0002DC244B01221A60234B1B68002B0BDD86
:10107C00214B1B68013B204A13601F4B1B68002B44
:10108C0002DC1E4B01221A601D4B1B68002B0BDD72
:10109C001B4B1B68013B1A4A1360194B1B68002B36
:1010AC0002DC184B01221A60174B1B68002B0BDD5E
:1010BC00154B1B68013B144A1360134B1B68002B28
:1010CC0002DC124B01221A60114B1B68002B0BDD4A
:1010DC000F4B1B68013B0E4A13600D4B1B68002B1A
:1010EC0002DC0C4B01221A6000BFBD4680BC70476D
:1010FC0024040020280400202C04002030040020AC
:10110C0034040020380400203C040020400400205B
:10111C00440400204804002080B485B000AF154B77
:10112C009B69144A43F001039361124B9B6903F0D2
:10113C000103BB60BB680F4BDB690E4A43F0805365
:10114C00D3610C4BDB6903F080537B607B680A4BEB
:10115C005B68FB60FB6823F0E063FB60FB6843F0BB
:10116C008063FB60044AFB68536000BF1437BD46C4
:10117C0080BC7047001002400000014080B584B074
:10118C0000AF78607B681B68B3F1804F13D10C4BB8
:10119C00DB690B4A43F00103D361094BDB6903F0B4
:1011AC000103FB60FB68002200211C2000F047FCBF
:1011BC001C2000F060FC00BF1037BD4680BD00BF96
:1011CC000010024080B400AF00BFFDE780B400AF58
:1011DC0000BFFDE780B400AF00BFFDE780B400AFF7
:1011EC0000BFFDE780B400AF00BFFDE780B400AFE7
:1011FC0000BFBD4680BC704780B400AF00BFBD4689
:10120C0080BC704780B400AF00BFBD4680BC704747
:10121C0080B500AF00F020FB00BF80BD80B500AFF3
:10122C00024801F081FA00BF80BD00BFB800002069
:10123C0080B582B000AF78607B68092B00F28081AA
:10124C0001A252F823F000BF7D120008C51200085D
:10125C000D130008551300089D130008E513000832
:10126C002D14000875140008BD140008051500089D
:10127C0000220121C64800F0ACFD00220221C44826
:10128C0000F0A7FD00220421C14800F0A2FD0022BD
:10129C000821BF4800F09DFD00221021BC4800F041
:1012AC0098FD00222021BA4800F093FD0122402134
:1012BC00B74800F08EFD67E101220121B44800F02F
:1012CC0088FD00220221B24800F083FD0022042197
:1012DC00AF4800F07EFD01220821AD4800F079FDF9
:1012EC0001221021AA4800F074FD01222021A848F7
:1012FC0000F06FFD01224021A54800F06AFD43E19A
:10130C0000220121A24800F064FD00220221A04825
:10131C0000F05FFD012204219D4800F05AFD0022DF
:10132C0008219B4800F055FD00221021984800F040
:10133C0050FD01222021964800F04BFD0022402157
:10134C00934800F046FD1FE100220121904800F077
:10135C0040FD002202218E4800F03BFD00220421BA
:10136C008B4800F036FD00220821894800F031FD41
:10137C0001221021864800F02CFD012220218448F6
:10138C0000F027FD00224021814800F022FDFBE007
:10139C00012201217E4800F01CFD002202217C4824
:1013AC0000F017FD00220421794800F012FD012203
:1013BC000821774800F00DFD01221021744800F03F
:1013CC0008FD00222021724800F003FD002240217C
:1013DC006F4800F0FEFCD7E0002201216C4800F0C1
:1013EC00F8FC012202216A4800F0F3FC00220421DF
:1013FC00674800F0EEFC00220821654800F0E9FC8B
:10140C0001221021624800F0E4FC002220216048F7
:10141C0000F0DFFC002240215D4800F0DAFCB3E074
:10142C00002201215A4800F0D4FC01220221584824
:10143C0000F0CFFC00220421554800F0CAFC002229
:10144C000821534800F0C5FC00221021504800F040
:10145C00C0FC002220214E4800F0BBFC00224021A1
:10146C004B4800F0B6FC8FE000220121484800F008
:10147C00B0FC00220221464800F0ABFC0022042103
:10148C00434800F0A6FC01220821414800F0A1FCD1
:10149C00012210213E4800F09CFC012220213C48F6
:1014AC0000F097FC01224021394800F092FC6BE0DF
:1014BC0000220121364800F08CFC00220221344825
:1014CC0000F087FC00220421314800F082FC00224D
:1014DC0008212F4800F07DFC002210212C4800F040
:1014EC0078FC002220212A4800F073FC00224021C5
:1014FC00274800F06EFC47E000220121244800F050
:10150C0068FC00220221224800F063FC0022042126
:10151C001F4800F05EFC002208211D4800F059FC19
:10152C00012210211A4800F054FC002220211848F6
:10153C0000F04FFC00224021154800F04AFC23E04B
:10154C0001220121124800F044FC01220221104822
:10155C0000F03FFC012204210D4800F03AFC01226E
:10156C0008210B4800F035FC01221021084800F03E
:10157C0030FC01222021064800F02BFC01224021E6
:10158C00034800F026FC00BF00BF0837BD4680BDF5
:10159C00000C014080B483B000AF786039607B6888
:1015AC00184A82FB03129210DB17D31A164A1360E7
:1015BC007968144B83FB01239A10CB17D21A13466C
:1015CC009B0013445B00CA1A0F4B5A603B680D4AD0
:1015DC0082FB03129210DB17D31A0B4A9360396803
:1015EC00084B83FB01239A10CB17D21A13469B008E
:1015FC0013445B00CA1A044BDA6000BF0C37BD46BB
:10160C0080BC7047676666664800002080B500AFF6
:10161C004D4B1B68013B032B00F2908001A252F84A
:10162C0023F000BF4116000883160008C5160008F9
:10163C000717000801224FF40051444800F0C9FB81
:10164C0001224FF48041414800F0C3FB01224FF4CA
:10165C0000413E4800F0BDFB00224FF480513B4856
:10166C0000F0B7FB3A4B1B681846FFF7E1FD364B11
:10167C0002221A6066E001224FF48051334800F0D8
:10168C00A8FB01224FF48041304800F0A2FB01225C
:10169C004FF400412D4800F09CFB00224FF4005108
:1016AC002A4800F096FB2A4B5B681846FFF7C0FDF2
:1016BC00254B03221A6045E001224FF48051234848
:1016CC0000F087FB01224FF40051204800F081FB11
:1016DC0001224FF400411D4800F07BFB00224FF427
:1016EC0080411A4800F075FB194B9B681846FFF7B0
:1016FC009FFD154B04221A6024E001224FF4805107
:10170C00124800F066FB01224FF400510F4800F024
:10171C0060FB01224FF480410C4800F05AFB002280
:10172C004FF40041094800F054FB094BDB681846A4
:10173C00FFF77EFD044B01221A6003E0024B0122ED
:10174C001A6000BF00BF80BDB4000020000C014037
:10175C004800002080B500AF054B1B68012B04D15D
:10176C007D20FFF737FCFFF751FF00BF80BD00BFA6
:10177C003804002080B400AF00BFBD4680BC704769
:10178C00FFF7F8FF0B480C490C4A002302E0D45831
:10179C00C4500433C4188C42F9D3094A094C0023B1
:1017AC0001E013600432A242FBD301F005FBFFF70A
:1017BC00A9F970470000002064000020502E00089A
:1017CC006400002050040020FEE7000080B500AF4C
:1017DC00084B1B68074A43F010031360032000F00A
:1017EC0023F90F2000F008F8FFF796FC00231846A9
:1017FC0080BD00BF0020024080B582B000AF786091
:10180C00124B1A68124B1B7819464FF47A73B3FBC0
:10181C00F1F3B2FBF3F3184600F03BF90346002B4F
:10182C0001D001230EE07B680F2B0AD800227968C7
:10183C004FF0FF3000F003F9064A7B681360002379
:10184C0000E0012318460837BD4680BD5800002033
:10185C00600000205C00002080B400AF054B1B78BA
:10186C001A46054B1B681344034A136000BFBD4660
:10187C0080BC7047600000204C04002080B400AF96
:10188C00024B1B681846BD4680BC70474C040020B8
:10189C0080B485B000AF78607B6803F00703FB6011
:1018AC000C4BDB68BB60BA684FF6FF031340BB60A0
:1018BC00FB681A02BB68134343F0BF6343F4003365
:1018CC00BB60044ABB68D36000BF1437BD4680BC04
:1018DC00704700BF00ED00E080B400AF044BDB6844
:1018EC001B0A03F007031846BD4680BC704700BFB7
:1018FC0000ED00E080B483B000AF0346FB7197F9B4
:10190C000730002B0BDBFB7903F01F02064997F91C
:10191C0007305B09012000FA02F241F8232000BFD6
:10192C000C37BD4680BC704700E100E080B483B04A
:10193C0000AF03463960FB7197F90730002B0ADBC7
:10194C003B68DAB20C4997F907301201D2B20B445A
:10195C0083F800230AE03B68DAB20849FB7903F00C
:10196C000F03043B1201D2B20B441A7600BF0C37A2
:10197C00BD4680BC704700BF00E100E000ED00E018
:10198C0080B489B000AFF860B9607A60FB6803F08E
:10199C000703FB61FB69C3F10703042B28BF042376
:1019AC00BB61FB690433062B02D9FB69033B00E0E6
:1019BC0000237B614FF0FF32BB6902FA03F3DA4379
:1019CC00BB681A407B699A404FF0FF317B6901FA82
:1019DC0003F3D9437B680B40134318462437BD46A9
:1019EC0080BC704780B582B000AF78607B68013BEB
:1019FC00B3F1807F01D301230FE00A4A7B68013BDE
:101A0C0053600F214FF0FF30FFF790FF054B002282
:101A1C009A60044B07221A60002318460837BD460B
:101A2C0080BD00BF10E000E080B582B000AF7860F0
:101A3C007868FFF72DFF00BF0837BD4680BD80B525
:101A4C0086B000AF0346B9607A60FB7300237B61FC
:101A5C00FFF742FF78617A68B9687869FFF790FF01
:101A6C00024697F90F3011461846FFF75FFF00BF8B
:101A7C001837BD4680BD80B582B000AF0346FB7100
:101A8C0097F907301846FFF735FF00BF0837BD46FA
:101A9C0080BD80B582B000AF78607868FFF7A2FF98
:101AAC00034618460837BD4680BD000080B48BB095
:101ABC0000AF7860396000237B6200233B6261E1F8
:101ACC0001227B6A02FA03F3FB613B681B68FA692B
:101ADC001340BB61BA69FB699A4240F050813B6884
:101AEC005B68974A93425ED0954A934275D8954A63
:101AFC00934258D0934A93426FD8934A934252D010
:101B0C00914A934269D8914A93424CD08F4A93425E
:101B1C0063D88F4A934246D08D4A93425DD8122B9C
:101B2C002AD8122B59D801A252F823F0B31B000863
:101B3C008D1B00089F1B0008E11B0008E71B000819
:101B4C00E71B0008E71B0008E71B0008E71B000861
:101B5C00E71B0008E71B0008E71B0008E71B000851
:101B6C00E71B0008E71B0008E71B0008E71B000841
:101B7C00951B0008A91B0008764A934213D02CE051
:101B8C003B68DB683B6229E03B68DB6804333B6203
:101B9C0024E03B68DB6808333B621FE03B68DB6892
:101BAC000C333B621AE03B689B68002B02D1042388
:101BBC003B6213E03B689B68012B05D108233B6219
:101BCC007B68FA691A6109E008233B627B68FA6951
:101BDC005A6103E000233B6200E000BFBB69FF2BAE
:101BEC0001D87B6801E07B6804337B61BB69FF2B08
:101BFC0002D87B6A9B0002E07B6A083B9B003B613E
:101C0C007B691A680F213B6901FA03F3DB431A4025
:101C1C00396A3B6901FA03F31A437B691A603B6822
:101C2C005B6803F08053002B00F0A9804A4B9B6942
:101C3C00494A43F001039361474B9B6903F001034D
:101C4C00BB60BB68454A7B6A9B08023352F8233061
:101C5C00FB607B6A03F003039B000F2202FA03F381
:101C6C00DB43FA681340FB607B683D4A93420DD01E
:101C7C007B683C4A934207D07B683B4A934201D134
:101C8C00022304E0032302E0012300E000237A6A2C
:101C9C0002F0030292009340FA681343FB602F4951
:101CAC007B6A9B080233FA6841F823203B685B6827
:101CBC0003F48013002B06D02C4B9A682B49BB697C
:101CCC0013438B6006E0294B9A68BB69DB432749B9
:101CDC0013408B603B685B6803F40013002B06D049
:101CEC00224BDA682149BB691343CB6006E01F4BDA
:101CFC00DA68BB69DB431D491340CB603B685B680A
:101D0C0003F40033002B06D0184B5A681749BB69F3
:101D1C0013434B6006E0154B5A68BB69DB43134910
:101D2C0013404B603B685B6803F48033002B1FD07F
:101D3C000E4B1A680D49BB6913430B601FE000BFC3
:101D4C0000003210000031100000221000002110A1
:101D5C0000001210000011100010024000000140A1
:101D6C0000080140000C014000100140000401403B
:101D7C000B4B1A68BB69DB43094913400B607B6A48
:101D8C0001337B623B681A687B6A22FA03F3002BEF
:101D9C007FF496AE00BF00BF2C37BD4680BC7047A9
:101DAC000004014080B485B000AF78600B467B80A6
:101DBC007B689A687B881340002B02D00123FB734D
:101DCC0001E00023FB73FB7B18461437BD4680BC37
:101DDC00704780B483B000AF78600B467B801346AD
:101DEC007B707B78002B03D07A887B681A6103E0C8
:101DFC007B881A047B681A6100BF0C37BD4680BC17
:101E0C00704780B485B000AF78600B467B807B68F0
:101E1C00DB68FB607A88FB6813401A04FB68D943C3
:101E2C007B880B401A437B681A6100BF1437BD4690
:101E3C0080BC704780B586B000AF78607B68002BA3
:101E4C0001D1012372E27B681B6803F00103002BB4
:101E5C0000F08780924B5B6803F00C03042B0CD0D2
:101E6C008F4B5B6803F00C03082B12D18C4B5B6817
:101E7C0003F48033B3F5803F0BD1894B1B6803F41B
:101E8C000033002B6CD07B685B68002B68D101237E
:101E9C004CE27B685B68B3F5803F06D1804B1B68D6
:101EAC007F4A43F4803313602EE07B685B68002B21
:101EBC000CD17B4B1B687A4A23F480331360784B2C
:101ECC001B68774A23F4802313601DE07B685B68F2
:101EDC00B3F5A02F0CD1724B1B68714A43F48023CD
:101EEC0013606F4B1B686E4A43F4803313600BE036
:101EFC006B4B1B686A4A23F480331360684B1B6876
:101F0C00674A23F4802313607B685B68002B13D033
:101F1C00FFF7B4FC386108E0FFF7B0FC02463B6900
:101F2C00D31A642B01D9032300E25D4B1B6803F425
:101F3C000033002BF0D014E0FFF7A0FC386108E070
:101F4C00FFF79CFC02463B69D31A642B01D903238F
:101F5C00ECE1534B1B6803F40033002BF0D100E091
:101F6C0000BF7B681B6803F00203002B63D04C4B53
:101F7C005B6803F00C03002B0BD0494B5B6803F040
:101F8C000C03082B1CD1464B5B6803F48033002BED
:101F9C0016D1434B1B6803F00203002B05D07B6862
:101FAC001B69012B01D00123C0E13D4B1B6823F0C1
:101FBC00F8027B685B69DB00394913430B603AE03C
:101FCC007B681B69002B20D0364B01221A60FFF76F
:101FDC0055FC386108E0FFF751FC02463B69D31A07
:101FEC00022B01D90323A1E12D4B1B6803F0020343
:101FFC00002BF0D02A4B1B6823F0F8027B685B693E
:10200C00DB00274913430B6015E0264B00221A60B6
:10201C00FFF734FC386108E0FFF730FC02463B69FF
:10202C00D31A022B01D9032380E11D4B1B6803F04B
:10203C000203002BF0D17B681B6803F00803002B14
:10204C003AD07B689B69002B19D0174B01221A6080
:10205C00FFF714FC386108E0FFF710FC02463B69FF
:10206C00D31A022B01D9032360E10D4B5B6A03F0F9
:10207C000203002BF0D0012000F09CFA1CE00A4B6C
:10208C0000221A60FFF7FAFB38610FE0FFF7F6FB4E
:10209C0002463B69D31A022B08D9032346E100BF41
:1020AC00001002400000424280044242924B5B6AA4
:1020BC0003F00203002BE9D17B681B6803F00403D7
:1020CC00002B00F0A6800023FB758B4BDB6903F023
:1020DC008053002B0DD1884BDB69874A43F080532A
:1020EC00D361854BDB6903F08053BB60BB68012374
:1020FC00FB75824B1B6803F48073002B18D17F4B4C
:10210C001B687E4A43F480731360FFF7B7FB38619A
:10211C0008E0FFF7B3FB02463B69D31A642B01D9E5
:10212C00032303E1754B1B6803F48073002BF0D081
:10213C007B68DB68012B06D16F4B1B6A6E4A43F040
:10214C00010313622DE07B68DB68002B0CD16A4B1A
:10215C001B6A694A23F001031362674B1B6A664AC8
:10216C0023F0040313621CE07B68DB68052B0CD1A5
:10217C00614B1B6A604A43F0040313625E4B1B6A9B
:10218C005D4A43F0010313620BE05B4B1B6A5A4A36
:10219C0023F001031362584B1B6A574A23F00403C4
:1021AC0013627B68DB68002B15D0FFF767FB386187
:1021BC000AE0FFF763FB02463B69D31A41F288320F
:1021CC00934201D90323B1E04B4B1B6A03F002038A
:1021DC00002BEED014E0FFF751FB38610AE0FFF75B
:1021EC004DFB02463B69D31A41F28832934201D926
:1021FC0003239BE0404B1B6A03F00203002BEED140
:10220C00FB7D012B05D13C4BDB693B4A23F0805312
:10221C00D3617B68DB69002B00F08780364B5B68F1
:10222C0003F00C03082B61D07B68DB69022B46D1D1
:10223C00334B00221A60FFF721FB386108E0FFF7EF
:10224C001DFB02463B69D31A022B01D903236DE017
:10225C00294B1B6803F00073002BF0D17B681B6AC1
:10226C00B3F5803F08D1244B5B6823F400327B68C4
:10227C009B68214913434B601F4B5B6823F474121A
:10228C007B68196A7B685B6A0B431B4913434B6081
:10229C001B4B01221A60FFF7F1FA386108E0FFF7D7
:1022AC00EDFA02463B69D31A022B01D903233DE018
:1022BC00114B1B6803F00073002BF0D035E0104B72
:1022CC0000221A60FFF7DAFA386108E0FFF7D6FA55
:1022DC0002463B69D31A022B01D9032326E0064B95
:1022EC001B6803F00073002BF0D11EE07B68DB69E8
:1022FC00012B07D1012319E00010024000700040AF
:10230C00600042420B4B5B68FB60FB6803F480325D
:10231C007B681B6A9A4206D1FB6803F470127B68D7
:10232C005B6A9A4201D0012300E00023184618375B
:10233C00BD4680BD0010024080B584B000AF78600F
:10234C0039607B68002B01D10123D0E06A4B1B68FC
:10235C0003F007033A689A4210D9674B1B6823F0C5
:10236C00070265493B6813430B60634B1B6803F022
:10237C0007033A689A4201D00123B8E07B681B68D6
:10238C0003F00203002B20D07B681B6803F00403CE
:10239C00002B05D0594B5B68584A43F4E0635360FB
:1023AC007B681B6803F00803002B05D0534B5B685C
:1023BC00524A43F460535360504B5B6823F0F00275
:1023CC007B689B684D4913434B607B681B6803F02B
:1023DC000103002B40D07B685B68012B07D1474B76
:1023EC001B6803F40033002B15D101237FE07B68BD
:1023FC005B68022B07D1414B1B6803F00073002B69
:10240C0009D1012373E03D4B1B6803F00203002B41
:10241C0001D101236BE0394B5B6823F003027B682D
:10242C005B68364913434B60FFF728FAF8600AE003
:10243C00FFF724FA0246FB68D31A41F28832934222
:10244C0001D9032353E02D4B5B6803F00C027B682E
:10245C005B689B009A42EBD1274B1B6803F0070388
:10246C003A689A4210D2244B1B6823F00702224987
:10247C003B6813430B60204B1B6803F007033A685F
:10248C009A4201D0012332E07B681B6803F00403FD
:10249C00002B08D0194B5B6823F4E0627B68DB6887
:1024AC00164913434B607B681B6803F00803002B31
:1024BC0009D0124B5B6823F460527B681B69DB000C
:1024CC000E4913434B6000F021F802460B4B5B683E
:1024DC001B0903F00F030A49CB5C22FA03F3094AE8
:1024EC001360094B1B681846FFF786F90023184642
:1024FC001037BD4680BD00BF0020024000100240D6
:10250C00242E0008580000205C00002080B487B006
:10251C0000AF0023FB600023BB6000237B61002322
:10252C007B6000233B611E4B5B68FB60FB6803F028
:10253C000C03042B02D0082B03D027E0194B3B6172
:10254C0027E0FB689B0C03F00F03174AD35C7B60FE
:10255C00FB6803F48033002B10D0114B5B685B0CD1
:10256C0003F00103114AD35CBB607B680D4A03FB8B
:10257C0002F2BB68B2FBF3F37B6104E07B680C4AAC
:10258C0002FB03F37B617B693B6102E0054B3B6122
:10259C0000BF3B6918461C37BD4680BC704700BF66
:1025AC000010024000127A00342E0008442E00085D
:1025BC0000093D0080B485B000AF78600A4B1B6801
:1025CC000A4AA2FB03235B0A7A6802FB03F3FB6053
:1025DC0000BFFB685A1EFA60002BF9D100BF00BF88
:1025EC001437BD4680BC704758000020D34D621094
:1025FC0080B582B000AF78607B68002B01D10123DD
:10260C0041E07B6893F83D30DBB2002B06D17B6850
:10261C00002283F83C207868FEF7B0FD7B6802222C
:10262C0083F83D207B681A687B6804331946104692
:10263C0000F056FA7B68012283F846207B68012261
:10264C0083F83E207B68012283F83F207B680122BF
:10265C0083F840207B68012283F841207B680122AB
:10266C0083F842207B68012283F843207B68012297
:10267C0083F844207B68012283F845207B68012283
:10268C0083F83D20002318460837BD4680BD000066
:10269C0080B485B000AF78607B6893F83D30DBB2D6
:1026AC00012B01D0012335E07B68022283F83D2009
:1026BC007B681B68DA687B681B6842F00102DA6091
:1026CC007B681B68164A934209D07B681B68B3F180
:1026DC00804F04D07B681B68124A934211D17B68EF
:1026EC001B689B6803F00703FB60FB68062B10D08C
:1026FC007B681B681A687B681B6842F001021A60D1
:10270C0007E07B681B681A687B681B6842F0010253
:10271C001A60002318461437BD4680BC704700BFB2
:10272C00002C01400004004080B584B000AF7860FC
:10273C007B681B68DB68FB607B681B681B69BB6084
:10274C00BB6803F00203002B20D0FB6803F00203EC
:10275C00002B1BD07B681B686FF002021A617B6830
:10276C0001221A777B681B689B6903F00303002B1B
:10277C0003D0786800F098F905E0786800F08BF9E0
:10278C00786800F09AF97B6800221A77BB6803F02E
:10279C000403002B20D0FB6803F00403002B1BD098
:1027AC007B681B686FF004021A617B6802221A773F
:1027BC007B681B689B6903F44073002B03D078681B
:1027CC0000F072F905E0786800F065F9786800F0BF
:1027DC0074F97B6800221A77BB6803F00803002B9E
:1027EC0020D0FB6803F00803002B1BD07B681B6810
:1027FC006FF008021A617B6804221A777B681B68E9
:10280C00DB6903F00303002B03D0786800F04CF96C
:10281C0005E0786800F03FF9786800F04EF97B68C5
:10282C0000221A77BB6803F01003002B20D0FB6842
:10283C0003F01003002B1BD07B681B686FF0100299
:10284C001A617B6808221A777B681B68DB6903F4C2
:10285C004073002B03D0786800F026F905E0786807
:10286C0000F019F9786800F028F97B6800221A77D3
:10287C00BB6803F00103002B0CD0FB6803F00103D1
:10288C00002B07D07B681B686FF001021A61786817
:10289C00FEF754FABB6803F08003002B0CD0FB68E6
:1028AC0003F08003002B07D07B681B686FF080025D
:1028BC001A61786800F06FFABB6803F04003002BD4
:1028CC000CD0FB6803F04003002B07D07B681B681F
:1028DC006FF040021A61786800F0F8F8BB6803F0FA
:1028EC002003002B0CD0FB6803F02003002B07D037
:1028FC007B681B686FF020021A61786800F042FA5E
:10290C0000BF1037BD4680BD80B584B000AF786085
:10291C0039600023FB737B6893F83C30012B01D1A9
:10292C000223B4E07B68012283F83C207B680222FE
:10293C0083F83D207B681B689B68BB60BB6823F0F9
:10294C007703BB60BB6823F47F43BB607B681B6869
:10295C00BA689A603B681B68B3F5005F3ED0B3F56C
:10296C00005F00F28780B3F5805F00F08680B3F5DE
:10297C00805F7FD8702B1AD0702B7BD8602B50D0F7
:10298C00602B77D8502B3CD0502B73D8402B58D081
:10299C00402B6FD8302B64D0302B6BD8202B60D0D1
:1029AC00202B67D8002B5CD0102B5AD062E07B68B0
:1029BC0018683B6899683B685A683B68DB6800F0AC
:1029CC006AF97B681B689B68BB60BB6843F0770344
:1029DC00BB607B681B68BA689A604FE07B681868BC
:1029EC003B6899683B685A683B68DB6800F053F9B0
:1029FC007B681B689A687B681B6842F480429A600B
:102A0C003CE07B6818683B6859683B68DB681A4691
:102A1C0000F0CAF87B681B685021184600F021F9B9
:102A2C002CE07B6818683B6859683B68DB681A4681
:102A3C0000F0E8F87B681B686021184600F011F97B
:102A4C001CE07B6818683B6859683B68DB681A4671
:102A5C0000F0AAF87B681B684021184600F001F9C9
:102A6C000CE07B681A683B681B681946104600F03E
:102A7C00F8F803E00123FB7300E000BF7B68012240
:102A8C0083F83D207B68002283F83C20FB7B1846B2
:102A9C001037BD4680BD80B483B000AF786000BFF6
:102AAC000C37BD4680BC704780B483B000AF7860F3
:102ABC0000BF0C37BD4680BC704780B483B000AFFC
:102ACC00786000BF0C37BD4680BC704780B483B0C3
:102ADC0000AF786000BF0C37BD4680BC704700006B
:102AEC0080B485B000AF786039607B681B68FB6090
:102AFC007B682B4A934207D07B68B3F1804F03D09D
:102B0C007B68284A934208D1FB6823F07003FB6072
:102B1C003B685B68FA681343FB607B68204A93420E
:102B2C0007D07B68B3F1804F03D07B681D4A93427A
:102B3C0008D1FB6823F44073FB603B68DB68FA68E0
:102B4C001343FB60FB6823F080023B685B69134313
:102B5C00FB607B68FA681A603B689A687B68DA628B
:102B6C003B681A687B689A627B680D4A934203D172
:102B7C003B681A697B681A637B6801225A617B681F
:102B8C001B6903F00103002B05D07B681B6923F044
:102B9C0001027B681A6100BF1437BD4680BC7047C8
:102BAC00002C01400004004080B487B000AFF860F6
:102BBC00B9607A60FB681B6A7B61FB681B6A23F057
:102BCC000102FB681A62FB689B693B613B6923F05D
:102BDC00F0033B617B681B013A6913433B617B69E2
:102BEC0023F00A037B617A69BB6813437B61FB6842
:102BFC003A699A61FB687A691A6200BF1C37BD4654
:102C0C0080BC704780B487B000AFF860B9607A6060
:102C1C00FB681B6A7B61FB681B6A23F01002FB6874
:102C2C001A62FB689B693B613B6923F470433B610F
:102C3C007B681B033A6913433B617B6923F0A00358
:102C4C007B61BB681B017A6913437B61FB683A6942
:102C5C009A61FB687A691A6200BF1C37BD4680BC5A
:102C6C00704780B485B000AF786039607B689B6832
:102C7C00FB60FB6823F07003FB603A68FB6813434E
:102C8C0043F00703FB607B68FA689A6000BF143757
:102C9C00BD4680BC704780B487B000AFF860B960A7
:102CAC007A603B60FB689B687B617B6923F47F43A4
:102CBC007B613B681A027B681A43BB6813437A69D1
:102CCC0013437B61FB687A699A6000BF1C37BD4671
:102CDC0080BC704780B485B000AF786039607B6889
:102CEC0093F83C30012B01D1022341E07B68012297
:102CFC0083F83C207B68022283F83D207B681B68AC
:102D0C005B68FB607B681B689B68BB60FB6823F09F
:102D1C007003FB603B681B68FA681343FB607B68BD
:102D2C001B68FA685A607B681B68144A934209D086
:102D3C007B681B68B3F1804F04D07B681B68104A1A
:102D4C0093420CD1BB6823F08003BB603B685B688B
:102D5C00BA681343BB607B681B68BA689A607B686F
:102D6C00012283F83D207B68002283F83C2000235D
:102D7C0018461437BD4680BC704700BF002C01407C
:102D8C000004004080B483B000AF786000BF0C3703
:102D9C00BD4680BC704780B483B000AF786000BF84
:102DAC000C37BD4680BC704703460244934200D1A9
:102DBC00704703F8011BF9E770B500260C4D0D4C5C
:102DCC00641BA410A64209D100F01AF800260A4D83
:102DDC000A4C641BA410A64205D170BD55F8043BE7
:102DEC0098470136EEE755F8043B98470136F2E771
:102DFC00482E0008482E0008482E00084C2E0008CB
:102E0C00F8B500BFF8BC08BC9E467047F8B500BFCB
:082E1C00F8BC08BC9E4670479B
:102E24000000000000000000010203040607080976
:102E340002030405060708090A0B0C0D0E0F1010F7
:042E44000102000087
:042E4800310100084C
:042E4C000D0100086C
:102E5000010000000100000001000000010000006E
:102E6000C800000001000000010000000100000097
:102E700001000000C8000000010000000100000087
:102E80000100000001000000C80000000500000073
:102E9000020000000300000001000000020000002A
:102EA000030000000400000000127A00100000007F
:042EB000010000001D
:040000050800178D4B
:00000001FF
